{
  "contractName": "PerlinRoboAdvisorV1",
  "abi": [
    {
      "inputs": [
        {
          "internalType": "address",
          "name": "_treasury",
          "type": "address"
        },
        {
          "internalType": "address",
          "name": "_dai",
          "type": "address"
        },
        {
          "internalType": "address",
          "name": "_rDai",
          "type": "address"
        }
      ],
      "payable": false,
      "stateMutability": "nonpayable",
      "type": "constructor"
    },
    {
      "anonymous": false,
      "inputs": [
        {
          "indexed": true,
          "internalType": "address",
          "name": "owner",
          "type": "address"
        },
        {
          "indexed": true,
          "internalType": "address",
          "name": "spender",
          "type": "address"
        },
        {
          "indexed": false,
          "internalType": "uint256",
          "name": "amount",
          "type": "uint256"
        }
      ],
      "name": "DaiAllowance",
      "type": "event"
    },
    {
      "anonymous": false,
      "inputs": [
        {
          "indexed": true,
          "internalType": "address",
          "name": "sender",
          "type": "address"
        },
        {
          "indexed": true,
          "internalType": "address",
          "name": "rdaiContractAddress",
          "type": "address"
        },
        {
          "indexed": false,
          "internalType": "uint256",
          "name": "allowanceAmount",
          "type": "uint256"
        }
      ],
      "name": "DaiAllowanceFound",
      "type": "event"
    },
    {
      "anonymous": false,
      "inputs": [
        {
          "indexed": true,
          "internalType": "address",
          "name": "sender",
          "type": "address"
        },
        {
          "indexed": true,
          "internalType": "address",
          "name": "rdaiContractAddress",
          "type": "address"
        },
        {
          "indexed": false,
          "internalType": "uint256",
          "name": "allowanceAmount",
          "type": "uint256"
        },
        {
          "indexed": false,
          "internalType": "uint256",
          "name": "investment",
          "type": "uint256"
        }
      ],
      "name": "DaiAllowanceValidation",
      "type": "event"
    },
    {
      "anonymous": false,
      "inputs": [
        {
          "indexed": true,
          "internalType": "address",
          "name": "sender",
          "type": "address"
        },
        {
          "indexed": true,
          "internalType": "address",
          "name": "rdaiContractAddress",
          "type": "address"
        },
        {
          "indexed": false,
          "internalType": "uint256",
          "name": "amount",
          "type": "uint256"
        }
      ],
      "name": "DaiApproved",
      "type": "event"
    },
    {
      "constant": true,
      "inputs": [],
      "name": "DEPLOYER",
      "outputs": [
        {
          "internalType": "address",
          "name": "",
          "type": "address"
        }
      ],
      "payable": false,
      "stateMutability": "view",
      "type": "function"
    },
    {
      "constant": true,
      "inputs": [],
      "name": "dai",
      "outputs": [
        {
          "internalType": "address",
          "name": "",
          "type": "address"
        }
      ],
      "payable": false,
      "stateMutability": "view",
      "type": "function"
    },
    {
      "constant": true,
      "inputs": [],
      "name": "daiToken",
      "outputs": [
        {
          "internalType": "contract IERC20",
          "name": "",
          "type": "address"
        }
      ],
      "payable": false,
      "stateMutability": "view",
      "type": "function"
    },
    {
      "constant": true,
      "inputs": [],
      "name": "rDai",
      "outputs": [
        {
          "internalType": "address",
          "name": "",
          "type": "address"
        }
      ],
      "payable": false,
      "stateMutability": "view",
      "type": "function"
    },
    {
      "constant": true,
      "inputs": [],
      "name": "rDaiToken",
      "outputs": [
        {
          "internalType": "contract IERC20",
          "name": "",
          "type": "address"
        }
      ],
      "payable": false,
      "stateMutability": "view",
      "type": "function"
    },
    {
      "constant": true,
      "inputs": [],
      "name": "treasury",
      "outputs": [
        {
          "internalType": "address",
          "name": "",
          "type": "address"
        }
      ],
      "payable": false,
      "stateMutability": "view",
      "type": "function"
    },
    {
      "constant": false,
      "inputs": [],
      "name": "purgeDeployer",
      "outputs": [],
      "payable": false,
      "stateMutability": "nonpayable",
      "type": "function"
    },
    {
      "constant": false,
      "inputs": [
        {
          "internalType": "uint256",
          "name": "mintAmount",
          "type": "uint256"
        }
      ],
      "name": "investDai",
      "outputs": [
        {
          "internalType": "bool",
          "name": "",
          "type": "bool"
        }
      ],
      "payable": false,
      "stateMutability": "nonpayable",
      "type": "function"
    },
    {
      "constant": true,
      "inputs": [
        {
          "internalType": "address",
          "name": "investor",
          "type": "address"
        }
      ],
      "name": "getAllowanceOfRoboAdvisorWithDai",
      "outputs": [
        {
          "internalType": "uint256",
          "name": "",
          "type": "uint256"
        }
      ],
      "payable": false,
      "stateMutability": "view",
      "type": "function"
    },
    {
      "constant": true,
      "inputs": [],
      "name": "getAllocatedDAIByRoboAdvisorTorDai",
      "outputs": [
        {
          "internalType": "uint256",
          "name": "",
          "type": "uint256"
        }
      ],
      "payable": false,
      "stateMutability": "view",
      "type": "function"
    },
    {
      "constant": true,
      "inputs": [],
      "name": "getDaiBalanceOfSender",
      "outputs": [
        {
          "internalType": "uint256",
          "name": "",
          "type": "uint256"
        }
      ],
      "payable": false,
      "stateMutability": "view",
      "type": "function"
    },
    {
      "constant": true,
      "inputs": [],
      "name": "getrDaiBalanceOfSender",
      "outputs": [
        {
          "internalType": "uint256",
          "name": "",
          "type": "uint256"
        }
      ],
      "payable": false,
      "stateMutability": "view",
      "type": "function"
    }
  ],
  "bytecode": "0x60806040523480156200001157600080fd5b5060405162001a2f38038062001a2f833981810160405262000037919081019062000229565b33600160006101000a81548173ffffffffffffffffffffffffffffffffffffffff021916908373ffffffffffffffffffffffffffffffffffffffff16021790555082600260006101000a81548173ffffffffffffffffffffffffffffffffffffffff021916908373ffffffffffffffffffffffffffffffffffffffff16021790555081600460006101000a81548173ffffffffffffffffffffffffffffffffffffffff021916908373ffffffffffffffffffffffffffffffffffffffff160217905550600460009054906101000a900473ffffffffffffffffffffffffffffffffffffffff16600560006101000a81548173ffffffffffffffffffffffffffffffffffffffff021916908373ffffffffffffffffffffffffffffffffffffffff16021790555080600360006101000a81548173ffffffffffffffffffffffffffffffffffffffff021916908373ffffffffffffffffffffffffffffffffffffffff160217905550600360009054906101000a900473ffffffffffffffffffffffffffffffffffffffff16600660006101000a81548173ffffffffffffffffffffffffffffffffffffffff021916908373ffffffffffffffffffffffffffffffffffffffff1602179055506001600081905550505050620002cd565b6000815190506200022381620002b3565b92915050565b6000806000606084860312156200023f57600080fd5b60006200024f8682870162000212565b9350506020620002628682870162000212565b9250506040620002758682870162000212565b9150509250925092565b60006200028c8262000293565b9050919050565b600073ffffffffffffffffffffffffffffffffffffffff82169050919050565b620002be816200027f565b8114620002ca57600080fd5b50565b61175280620002dd6000396000f3fe608060405234801561001057600080fd5b50600436106100b45760003560e01c8063be22f54611610071578063be22f5461461016b578063c1b8411a14610189578063e79c5aba146101a7578063ef3be3e4146101c5578063f4b9fa75146101f5578063f91b7d1014610213576100b4565b806303a82138146100b95780633b57cabc146100c35780635c1aac4f146100e15780635e6f9468146100ff57806361d027b31461011d57806392e10e471461013b575b600080fd5b6100c1610231565b005b6100cb610305565b6040516100d8919061150c565b60405180910390f35b6100e96103b7565b6040516100f69190611431565b60405180910390f35b6101076103dd565b604051610114919061150c565b60405180910390f35b61012561048f565b60405161013291906112f7565b60405180910390f35b61015560048036036101509190810190610f38565b6104b5565b6040516101629190611416565b60405180910390f35b610173610bde565b6040516101809190611431565b60405180910390f35b610191610c04565b60405161019e91906112f7565b60405180910390f35b6101af610c2a565b6040516101bc91906112f7565b60405180910390f35b6101df60048036036101da9190810190610ee6565b610c50565b6040516101ec919061150c565b60405180910390f35b6101fd610d06565b60405161020a91906112f7565b60405180910390f35b61021b610d2c565b604051610228919061150c565b60405180910390f35b600160009054906101000a900473ffffffffffffffffffffffffffffffffffffffff1673ffffffffffffffffffffffffffffffffffffffff163373ffffffffffffffffffffffffffffffffffffffff16146102c1576040517f08c379a00000000000000000000000000000000000000000000000000000000081526004016102b89061148c565b60405180910390fd5b6000600160006101000a81548173ffffffffffffffffffffffffffffffffffffffff021916908373ffffffffffffffffffffffffffffffffffffffff160217905550565b6000600660009054906101000a900473ffffffffffffffffffffffffffffffffffffffff1673ffffffffffffffffffffffffffffffffffffffff166370a08231336040518263ffffffff1660e01b81526004016103629190611312565b60206040518083038186803b15801561037a57600080fd5b505afa15801561038e573d6000803e3d6000fd5b505050506040513d601f19601f820116820180604052506103b29190810190610f61565b905090565b600660009054906101000a900473ffffffffffffffffffffffffffffffffffffffff1681565b6000600560009054906101000a900473ffffffffffffffffffffffffffffffffffffffff1673ffffffffffffffffffffffffffffffffffffffff166370a08231336040518263ffffffff1660e01b815260040161043a9190611312565b60206040518083038186803b15801561045257600080fd5b505afa158015610466573d6000803e3d6000fd5b505050506040513d601f19601f8201168201806040525061048a9190810190610f61565b905090565b600260009054906101000a900473ffffffffffffffffffffffffffffffffffffffff1681565b600080600560009054906101000a900473ffffffffffffffffffffffffffffffffffffffff1673ffffffffffffffffffffffffffffffffffffffff1663dd62ed3e33306040518363ffffffff1660e01b815260040161051592919061132d565b60206040518083038186803b15801561052d57600080fd5b505afa158015610541573d6000803e3d6000fd5b505050506040513d601f19601f820116820180604052506105659190810190610f61565b9050600360009054906101000a900473ffffffffffffffffffffffffffffffffffffffff1673ffffffffffffffffffffffffffffffffffffffff163373ffffffffffffffffffffffffffffffffffffffff167f0e859d8dc402712bef319e0dc2eaada1b73585c14263978ccdef829eb34757e5836040516105e6919061150c565b60405180910390a3600360009054906101000a900473ffffffffffffffffffffffffffffffffffffffff1673ffffffffffffffffffffffffffffffffffffffff163373ffffffffffffffffffffffffffffffffffffffff167f98d3d9c7145b34c39c4355cb9f513a5670237bd9c03b8371f379759a609dab59838660405161066f92919061156c565b60405180910390a3828110156106ba576040517f08c379a00000000000000000000000000000000000000000000000000000000081526004016106b1906114ac565b60405180910390fd5b600560009054906101000a900473ffffffffffffffffffffffffffffffffffffffff1673ffffffffffffffffffffffffffffffffffffffff166323b872dd3330866040518463ffffffff1660e01b815260040161071993929190611356565b602060405180830381600087803b15801561073357600080fd5b505af1158015610747573d6000803e3d6000fd5b505050506040513d601f19601f8201168201806040525061076b9190810190610f0f565b6107aa576040517f08c379a00000000000000000000000000000000000000000000000000000000081526004016107a1906114ec565b60405180910390fd5b600560009054906101000a900473ffffffffffffffffffffffffffffffffffffffff1673ffffffffffffffffffffffffffffffffffffffff1663095ea7b3600360009054906101000a900473ffffffffffffffffffffffffffffffffffffffff16856040518363ffffffff1660e01b81526004016108299291906113ed565b602060405180830381600087803b15801561084357600080fd5b505af1158015610857573d6000803e3d6000fd5b505050506040513d601f19601f8201168201806040525061087b9190810190610f0f565b6108ba576040517f08c379a00000000000000000000000000000000000000000000000000000000081526004016108b19061146c565b60405180910390fd5b606060026040519080825280602002602001820160405280156108ec5781602001602082028038833980820191505090505b509050600260009054906101000a900473ffffffffffffffffffffffffffffffffffffffff168160008151811061091f57fe5b602002602001019073ffffffffffffffffffffffffffffffffffffffff16908173ffffffffffffffffffffffffffffffffffffffff1681525050338160018151811061096757fe5b602002602001019073ffffffffffffffffffffffffffffffffffffffff16908173ffffffffffffffffffffffffffffffffffffffff1681525050606060026040519080825280602002602001820160405280156109d35781602001602082028038833980820191505090505b509050605a816000815181106109e557fe5b602002602001019063ffffffff16908163ffffffff1681525050600a81600181518110610a0e57fe5b602002602001019063ffffffff16908163ffffffff1681525050600360009054906101000a900473ffffffffffffffffffffffffffffffffffffffff1673ffffffffffffffffffffffffffffffffffffffff1663b5dbfc1a8684846040518463ffffffff1660e01b8152600401610a8793929190611527565b602060405180830381600087803b158015610aa157600080fd5b505af1158015610ab5573d6000803e3d6000fd5b505050506040513d601f19601f82011682018060405250610ad99190810190610f0f565b610ae257600080fd5b600660009054906101000a900473ffffffffffffffffffffffffffffffffffffffff1673ffffffffffffffffffffffffffffffffffffffff166323b872dd3033886040518463ffffffff1660e01b8152600401610b41939291906113b6565b602060405180830381600087803b158015610b5b57600080fd5b505af1158015610b6f573d6000803e3d6000fd5b505050506040513d601f19601f82011682018060405250610b939190810190610f0f565b610bd2576040517f08c379a0000000000000000000000000000000000000000000000000000000008152600401610bc99061144c565b60405180910390fd5b60019350505050919050565b600560009054906101000a900473ffffffffffffffffffffffffffffffffffffffff1681565b600160009054906101000a900473ffffffffffffffffffffffffffffffffffffffff1681565b600360009054906101000a900473ffffffffffffffffffffffffffffffffffffffff1681565b6000600560009054906101000a900473ffffffffffffffffffffffffffffffffffffffff1673ffffffffffffffffffffffffffffffffffffffff1663dd62ed3e33306040518363ffffffff1660e01b8152600401610caf92919061132d565b60206040518083038186803b158015610cc757600080fd5b505afa158015610cdb573d6000803e3d6000fd5b505050506040513d601f19601f82011682018060405250610cff9190810190610f61565b9050919050565b600460009054906101000a900473ffffffffffffffffffffffffffffffffffffffff1681565b6000600160009054906101000a900473ffffffffffffffffffffffffffffffffffffffff1673ffffffffffffffffffffffffffffffffffffffff163373ffffffffffffffffffffffffffffffffffffffff1614610dbe576040517f08c379a0000000000000000000000000000000000000000000000000000000008152600401610db5906114cc565b60405180910390fd5b600560009054906101000a900473ffffffffffffffffffffffffffffffffffffffff1673ffffffffffffffffffffffffffffffffffffffff1663dd62ed3e30600360009054906101000a900473ffffffffffffffffffffffffffffffffffffffff166040518363ffffffff1660e01b8152600401610e3d92919061138d565b60206040518083038186803b158015610e5557600080fd5b505afa158015610e69573d6000803e3d6000fd5b505050506040513d601f19601f82011682018060405250610e8d9190810190610f61565b905090565b600081359050610ea1816116ca565b92915050565b600081519050610eb6816116e1565b92915050565b600081359050610ecb816116f8565b92915050565b600081519050610ee0816116f8565b92915050565b600060208284031215610ef857600080fd5b6000610f0684828501610e92565b91505092915050565b600060208284031215610f2157600080fd5b6000610f2f84828501610ea7565b91505092915050565b600060208284031215610f4a57600080fd5b6000610f5884828501610ebc565b91505092915050565b600060208284031215610f7357600080fd5b6000610f8184828501610ed1565b91505092915050565b6000610f968383610fc9565b60208301905092915050565b6000610fae83836112e8565b60208301905092915050565b610fc381611670565b82525050565b610fd281611618565b82525050565b610fe181611618565b82525050565b6000610ff2826115b5565b610ffc81856115e5565b935061100783611595565b8060005b8381101561103857815161101f8882610f8a565b975061102a836115cb565b92505060018101905061100b565b5085935050505092915050565b6000611050826115c0565b61105a81856115f6565b9350611065836115a5565b8060005b8381101561109657815161107d8882610fa2565b9750611088836115d8565b925050600181019050611069565b5085935050505092915050565b6110ac8161162a565b82525050565b6110bb81611682565b82525050565b60006110ce602983611607565b91507f6661696c656420746f207472616e73666572207244616920746f6b656e20746f60008301527f20496e766573746f7200000000000000000000000000000000000000000000006020830152604082019050919050565b6000611134602483611607565b91507f4661696c656420746f20616c6c6f63617465204441492066756e647320746f2060008301527f72444149000000000000000000000000000000000000000000000000000000006020830152604082019050919050565b600061119a600b83611607565b91507f4465706c6f7965724572720000000000000000000000000000000000000000006000830152602082019050919050565b60006111da604083611607565b91507f496e73756666696369656e7420444149202d20506c6561736520696e6372656160008301527f73652044414920616c6c6f77616e636520666f7220726f626f41647669736f726020830152604082019050919050565b6000611240600d83611607565b91507f4d7573742062652041646d696e000000000000000000000000000000000000006000830152602082019050919050565b6000611280602583611607565b91507f4661696c656420746f207472616e736665722044414920746f20526f626f416460008301527f7669736f720000000000000000000000000000000000000000000000000000006020830152604082019050919050565b6112e281611656565b82525050565b6112f181611660565b82525050565b600060208201905061130c6000830184610fd8565b92915050565b60006020820190506113276000830184610fba565b92915050565b60006040820190506113426000830185610fba565b61134f6020830184610fd8565b9392505050565b600060608201905061136b6000830186610fba565b6113786020830185610fd8565b61138560408301846112d9565b949350505050565b60006040820190506113a26000830185610fd8565b6113af6020830184610fd8565b9392505050565b60006060820190506113cb6000830186610fd8565b6113d86020830185610fba565b6113e560408301846112d9565b949350505050565b60006040820190506114026000830185610fd8565b61140f60208301846112d9565b9392505050565b600060208201905061142b60008301846110a3565b92915050565b600060208201905061144660008301846110b2565b92915050565b60006020820190508181036000830152611465816110c1565b9050919050565b6000602082019050818103600083015261148581611127565b9050919050565b600060208201905081810360008301526114a58161118d565b9050919050565b600060208201905081810360008301526114c5816111cd565b9050919050565b600060208201905081810360008301526114e581611233565b9050919050565b6000602082019050818103600083015261150581611273565b9050919050565b600060208201905061152160008301846112d9565b92915050565b600060608201905061153c60008301866112d9565b818103602083015261154e8185610fe7565b905081810360408301526115628184611045565b9050949350505050565b600060408201905061158160008301856112d9565b61158e60208301846112d9565b9392505050565b6000819050602082019050919050565b6000819050602082019050919050565b600081519050919050565b600081519050919050565b6000602082019050919050565b6000602082019050919050565b600082825260208201905092915050565b600082825260208201905092915050565b600082825260208201905092915050565b600061162382611636565b9050919050565b60008115159050919050565b600073ffffffffffffffffffffffffffffffffffffffff82169050919050565b6000819050919050565b600063ffffffff82169050919050565b600061167b826116a6565b9050919050565b600061168d82611694565b9050919050565b600061169f82611636565b9050919050565b60006116b1826116b8565b9050919050565b60006116c382611636565b9050919050565b6116d381611618565b81146116de57600080fd5b50565b6116ea8161162a565b81146116f557600080fd5b50565b61170181611656565b811461170c57600080fd5b5056fea365627a7a723158206d3dd0301344ed7466401f4e72e2ff12b3811d47abfbbb33a47f1cd26b6323d26c6578706572696d656e74616cf564736f6c63430005100040",
  "source": "//SPDX-License-Identifier: Unlicense\npragma solidity >=0.5.10 <0.6.0;\npragma experimental ABIEncoderV2;\n\n/**\n * @dev Interface of the ERC20 standard as defined in the EIP. Does not include\n * the optional functions; to access them see {ERC20Detailed}.\n */\ninterface IERC20 {\n    /**\n     * @dev Returns the amount of tokens in existence.\n     */\n    function totalSupply() external view returns (uint256);\n\n    /**\n     * @dev Returns the amount of tokens owned by `account`.\n     */\n    function balanceOf(address account) external view returns (uint256);\n\n    /**\n     * @dev Moves `amount` tokens from the caller's account to `recipient`.\n     *\n     * Returns a boolean value indicating whether the operation succeeded.\n     *\n     * Emits a {Transfer} event.\n     */\n    function transfer(address recipient, uint256 amount) external returns (bool);\n\n    /**\n     * @dev Returns the remaining number of tokens that `spender` will be\n     * allowed to spend on behalf of `owner` through {transferFrom}. This is\n     * zero by default.\n     *\n     * This value changes when {approve} or {transferFrom} are called.\n     */\n    function allowance(address owner, address spender) external view returns (uint256);\n\n    /**\n     * @dev Sets `amount` as the allowance of `spender` over the caller's tokens.\n     *\n     * Returns a boolean value indicating whether the operation succeeded.\n     *\n     * IMPORTANT: Beware that changing an allowance with this method brings the risk\n     * that someone may use both the old and the new allowance by unfortunate\n     * transaction ordering. One possible solution to mitigate this race\n     * condition is to first reduce the spender's allowance to 0 and set the\n     * desired value afterwards:\n     * https://github.com/ethereum/EIPs/issues/20#issuecomment-263524729\n     *\n     * Emits an {Approval} event.\n     */\n    function approve(address spender, uint256 amount) external returns (bool);\n\n    /**\n     * @dev Moves `amount` tokens from `sender` to `recipient` using the\n     * allowance mechanism. `amount` is then deducted from the caller's\n     * allowance.\n     *\n     * Returns a boolean value indicating whether the operation succeeded.\n     *\n     * Emits a {Transfer} event.\n     */\n    function transferFrom(address sender, address recipient, uint256 amount) external returns (bool);\n\n    /**\n     * @dev Emitted when `value` tokens are moved from one account (`from`) to\n     * another (`to`).\n     *\n     * Note that `value` may be zero.\n     */\n    event Transfer(address indexed from, address indexed to, uint256 value);\n\n    /**\n     * @dev Emitted when the allowance of a `spender` for an `owner` is set by\n     * a call to {approve}. `value` is the new allowance.\n     */\n    event Approval(address indexed owner, address indexed spender, uint256 value);\n}\n\ninterface IRToken {\n    function mintWithNewHat(uint256 mintAmount, address[] calldata recipients, uint32[] calldata proportions) \n                                                                    external returns (bool);\n}\n\nlibrary SafeMath {\n\n  function add(uint256 a, uint256 b) internal pure returns (uint256) {\n        uint256 c = a + b;\n        require(c >= a, \"SafeMath: addition overflow\");\n\n        return c;\n    }\n\n    function sub(uint256 a, uint256 b) internal pure returns (uint256) {\n        return sub(a, b, \"SafeMath: subtraction overflow\");\n    }\n\n    function sub(\n        uint256 a,\n        uint256 b,\n        string memory errorMessage\n    ) internal pure returns (uint256) {\n        require(b <= a, errorMessage);\n        uint256 c = a - b;\n        return c;\n    }\n\n    function mul(uint256 a, uint256 b) internal pure returns (uint256) {\n        if (a == 0) {\n            return 0;\n        }\n        uint256 c = a * b;\n        require(c / a == b, \"SafeMath: multiplication overflow\");\n        return c;\n    }\n\n    function div(uint256 a, uint256 b) internal pure returns (uint256) {\n        return div(a, b, \"SafeMath: division by zero\");\n    }\n\n    function div(\n        uint256 a,\n        uint256 b,\n        string memory errorMessage\n    ) internal pure returns (uint256) {\n        require(b > 0, errorMessage);\n        uint256 c = a / b;\n        return c;\n    }\n\n   \n}\n\ncontract PerlinRoboAdvisorV1 {\n    using SafeMath for uint256;\n    uint256 private constant _NOT_ENTERED = 1;\n    uint256 private constant _ENTERED = 2;\n    uint256 private _status;\n    \n    address public DEPLOYER;\n    address public treasury;\n    address public rDai;\n    address public dai;\n    IERC20  public daiToken;\n    IERC20  public rDaiToken;\n\n      // Events\n    event DaiApproved(\n        address indexed sender,\n        address indexed rdaiContractAddress,\n        uint256 amount\n    );\n\n    event DaiAllowanceFound(\n        address indexed sender,\n        address indexed rdaiContractAddress,\n        uint256 allowanceAmount\n    );\n\n    event DaiAllowanceValidation(\n        address indexed sender,\n        address indexed rdaiContractAddress,\n        uint256 allowanceAmount,\n        uint256 investment\n    );\n\n    event DaiAllowance( address indexed owner,\n        address indexed spender,\n        uint256 amount);\n\n    // Only Admin can execute\n    modifier onlyAdmin() {\n        require(msg.sender == DEPLOYER, \"Must be Admin\");\n        _;\n    }\n\n    modifier nonReentrant() {\n        require(_status != _ENTERED, \"ReentrancyGuard: reentrant call\");\n        _status = _ENTERED;\n        _;\n        _status = _NOT_ENTERED;\n    }\n\n      // Only Deployer can execute\n    modifier onlyDeployer() {\n        require(msg.sender == DEPLOYER, \"DeployerErr\");\n        _;\n    }\n\n    constructor(address _treasury, address _dai, address _rDai) public {\n        DEPLOYER = msg.sender;\n        treasury = _treasury; \n        dai = _dai;\n        daiToken = IERC20(dai);\n        rDai = _rDai;\n        rDaiToken = IERC20(rDai);\n        _status = _NOT_ENTERED;\n\n    }\n\n    function purgeDeployer() public onlyDeployer {\n        DEPLOYER = address(0);\n    }\n\n  \n    //non-custodial investment of DAI\n\n    /**\n     * @dev IRToken.mintWithNewHat implementation\n     */\n    function investDai(uint mintAmount) public returns (bool) {\n        uint allowanceFromUser  = daiToken.allowance(msg.sender, address(this));\n        emit DaiAllowanceFound(msg.sender, rDai, allowanceFromUser);\n        emit DaiAllowanceValidation(msg.sender, rDai, allowanceFromUser, mintAmount);\n        require(allowanceFromUser >= mintAmount , \"Insufficient DAI - Please increase DAI allowance for roboAdvisor\");\n        require(daiToken.transferFrom(msg.sender, address(this), mintAmount), \"Failed to transfer DAI to RoboAdvisor\");\n        require(daiToken.approve(rDai, mintAmount), \"Failed to allocate DAI funds to rDAI\");\n        address[] memory recipients = new address[](2);\n        recipients[0] = treasury;\n        recipients[1] = msg.sender;\n        uint32[] memory proportions = new uint32[](2);\n        proportions[0] = 90;\n        proportions[1] = 10;\n        require(IRToken(rDai).mintWithNewHat(mintAmount, recipients, proportions));\n        require(rDaiToken.transferFrom(address(this), msg.sender, mintAmount), \"failed to transfer rDai token to Investor\");\n        return true;\n    }\n\n    function getAllowanceOfRoboAdvisorWithDai(address investor) public view returns (uint) {\n        return daiToken.allowance(msg.sender, address(this));\n    }\n\n    function getAllocatedDAIByRoboAdvisorTorDai() public view onlyAdmin returns (uint){\n        return daiToken.allowance(address(this), rDai);\n    }\n\n    function getDaiBalanceOfSender() public view returns (uint) {\n        return daiToken.balanceOf(msg.sender);\n    }\n\n    function getrDaiBalanceOfSender() public view returns (uint) {\n        return rDaiToken.balanceOf(msg.sender);\n    }\n}",
  "sourcePath": "/Users/lakshmikanth/Documents/PerlinX/robo-advisor/roboadvisor-code/daiRoboAdvisor/contracts/PerlinRoboAdvisorV1.sol",
  "compiler": {
    "name": "solc",
    "version": "0.5.16+commit.9c3226ce.Emscripten.clang"
  },
  "schemaVersion": "3.2.0",
  "updatedAt": "2020-10-15T17:40:05.056Z",
  "networkType": "ethereum",
  "devdoc": {
    "methods": {
      "investDai(uint256)": {
        "details": "IRToken.mintWithNewHat implementation"
      }
    }
  },
  "userdoc": {
    "methods": {}
  }
}